:091CDA004D414E004155544F00EC
:101A520004490000000001220001440001210001AC
:101A62002337044D426E0000044040000000043C55
:101A72003CA3D70A04380000000004240000000040
:101A8200045500000000043400000000043000008F
:0E1A92000000045100000000044500000000A8
:051CF20012194480FE00
:03000B000219FBDC
:1019FB00C0E0C0F0C083C082C0D075D000C000C0B2
:101A0B0001C002C003C004C005C006C007C28C756C
:101A1B008CDC758A001211B3E523B43705121AA4B6
:101A2B008008E523B4380312177AD28CD007D0067E
:101A3B00D005D004D003D002D001D000D0D0D082BA
:071A4B00D083D0F0D0E0329F
:10135100E544707CAB58AA57A956A855AF27AE26CD
:10136100AD25AC24120A018F338E328D318C30AB16
:101371003BAA3AA939A838120AF6C004C005C0062A
:10138100C007AF27AE26AD25AC24AB43AA42A94185
:10139100A840120AF6D003D002D001D000120A05EB
:1013A1008F548E538D528C51AB50AA4FA94EA84DDC
:1013B100120A058F2F8E2E8D2D8C2CAB54AA53A97A
:1013C10052A851AF50AE4FAD4EAC4D120A01801F25
:1013D100E544B40124E4F52FF52EF52DF52CFFFE9F
:1013E1007D807C40AB50AA4FA94EA84D120A058FB3
:1013F1002B8E2A8D298C288028E544B40223E4FF12
:10140100FE7D807C40AB50AA4FA94EA84D120A0523
:101411008F2F8E2E8D2D8C2CE4F52BF52AF529F5A9
:1014210028AF4CAE4BAD4AAC49AB2FAA2EA92DA883
:101431002C120C9C600E400C852F4C852E4B852D5B
:101441004A852C49AF4CAE4BAD4AAC49AB2BAA2ACD
:10145100A929A828120C9C600E400C852B4C852ACA
:101461004B85294A852849E4FFFE7D967C42AB2FB6
:10147100AA2EA92DA82C120C9C600D400BE4F52F6F
:10148100F52E752D96752C42E4FFFE7D967C42ABC0
:101491002BAA2AA929A828120C9C600D400BE4F55F
:0C14A1002BF52A75299675284202168743
:100E7700E4F50BF50AF509F508E5A0541F120E5124
:100E87000EB0070EA60F0EC7130EBA170EE0190EF7
:100E9700D51B0EF81C0EEE1D0F021E00000F0FE4EF
:100EA700F50BF50A7509908012E4F50BF50A75093B
:100EB700808008E4F50BF50A7509407508C0805471
:100EC700750B9A750A997509997508BF8046E4F5F7
:100ED7000BF50AF509F508803B750B9A750A9975A4
:100EE700099975083F802DE4F50BF50A75094080CF
:100EF70012E4F50BF50A7509808008E4F50BF50A8D
:100F0700750990750840800C85270B85260A85256D
:100F170009852408E544600620A203E4F54430A6C9
:100F270003020FCD20A503020FCD754401E5A054A0
:100F37001F641B6020E5A0541F64176018E5A054C8
:100F47001F641D6010E5A0541F64136008E5A054DA
:100F57001F64197033121CE3E5A0541F641B602340
:100F6700E5A0541F6417601BE5A0541F641D6013A0
:100F7700E5A0541F6413600BE5A0541F64196003B8
:100F870002119AE4FF021034E5A0541F64036013B2
:100F9700E5A0541F6407600BE5A0541F64016003BC
:100FA70002119A121CE3E5A0541F64036013E5A025
:100FB700541F6407600BE5A0541F6401600302110E
:100FC7009AE4FF02107520A60302107B30A50302E6
:100FD700107B754402E5A0541F641B6020E5A054F4
:100FE7001F64176018E5A0541F641D6010E5A05426
:100FF7001F64136008E5A0541F64197036121CE3C0
:10100700E5A0541F641B6023E5A0541F6417601BF1
:10101700E5A0541F641D6013E5A0541F6413600B03
:10102700E5A0541F6419600302119A7F011215533A
:1010370002119AE5A0541F64186013E5A0541F64B9
:101047001C600BE5A0541F6410600302119A121C68
:10105700E3E5A0541F64186013E5A0541F641C60E7
:101067000BE5A0541F6410600302119A7F01121947
:10107700A302119A20A60302114720A503021147D4
:10108700E5A0541F64116019E5A0541F6013E5A083
:10109700541F6410600BE5A0541F64016003021124
:1010A70047121CE320A60302119A20A50302119AF6
:1010B700E5A0541F64116019E5A0541F6013E5A053
:1010C700541F6410600BE5A0541F640160030211F4
:1010D7009A121C7D121CE3121CE3121CE3121CE380
:1010E700121CE330A20630A30320A10AC296C295C0
:1010F700C290C29180FEE522B40203752203C29614
:10110700C295C290C291E4FFFE7D407C40AB50AADD
:101117004FA94EA84D120A058F2F8E2E8D2D8C2C80
:10112700E4FFFE7D40121672121C7DD296C295C254
:1011370090D291121C8AD296C295D290C2918053B6
:10114700E5A0541F704D20A64A20A547121CE3E5D1
:10115700A0541F703120A62E20A52B121C7D121C17
:101167007D121CE3121CE3121CE3121CE3121CE3A6
:10117700E5A0541FFFBF1F1BE52204F544AF221251
:1011870019A30521800DE522B40305E4FF1219A375
:101197007522028527588526578525568524558526
:0B11A7000B27850A26850925850824F2
:0111B200221A
:101AA400E51C64386006E51C64367027752338C26B
:101AB40096C295C290C291750B077B067D32E4FFF6
:101AC400121B237BFF7A1C79DA7D06E4FF121AE6E7
:101AD4000216F7D296C295D290C291120E771213C3
:021AE40051228D
:101672007C40AB50AA4FA94EA84D120A058F2B8E63
:051682002A8D298C28CF
:10168700E4FFFE7D7F7C43AB2FAA2EA92DA82C1249
:101697000AF6E4FBFA79C87842120BFFA804A905F9
:1016A700AA06AB07E4FFFE7D7F7C43120A01120DF9
:1016B700158F0DE4FFFE7D7F7C43AB2BAA2AA9295A
:1016C700A828120AF6E4FBFA79C87842120BFFA899
:1016D70004A905AA06AB07E4FFFE7D7F7C43120A37
:1016E70001120D158F0EAF0D121CF7AF0E021CFC69
:10177A00E4F52FF52E752D8C752C42F52BF52A756F
:10178A00298C752842121687E51C24CF601514602F
:10179A001614601C24FD60211460272407704AC2B5
:1017AA00968006D2968014D296C295D290C2912281
:1017BA00C296D295C290D29122C296C295C290C2C6
:1017CA009122752337D296C295D290C2911216F7FA
:1017DA00750B077B067D32E4FF121B237BFF7A1C05
:1017EA0079DE7D06E4FF021AE6D296D295D290D22D
:0217FA0091223A
:1019A3008F0C850C22C296C295C290C291E4FFFEB1
:1019B300FD7C40AB50AA4FA94EA84D120A058F2FAC
:1019C3008E2E8D2D8C2CE4FFFEFD121672E50C700D
:1019D3000AC296D295D290C2918008D296C295C27D
:1019E30090D291121C7D121C7D121C7D121C7DD283
:0819F30096C295D290C2912228
:101553008F0CC296C295C290C29185502F854F2E93
:10156300854E2D854D2C85502B854F2A854E2985FB
:101573004D28121687C296D295C290D291121C7D25
:10158300121CE3C296C295C290C291E50C7023F57A
:101593002FF52EF52DF52CFFFE7D407C40AB50AA98
:1015A3004FA94EA84D120A058F2B8E2A8D298C2800
:1015B3008023E4FFFE7D407C40AB50AA4FA94EA898
:1015C3004D120A058F2F8E2E8D2D8C2CE4F52BF5C5
:1015D3002AF529F528121687D296C295D290C29180
:0315E300021C9750
:051CEC007F34DFFE0063
:011CF10022D0
:091CBC007F4E7E02DEFEDFFA001D
:011CC50022FC
:091CC6007F0E7E61DEFEDFFA00F4
:011CCF0022F2
:091CD0007F157E82DEFEDFFA00C2
:011CD90022E8
:081CE3007FC27E8DDEFEDFFAF8
:011CEB0022D6
:0C1C7D007F9D7ECF7D07DDFEDEFADFF6E6
:011C89002238
:0C1C8A007FF67ED47D19DDFEDEFADFF669
:011C9600222B
:0C1C97007FD97EAB7D49DDFEDEFADFF672
:011CA300221E
:101BD400D3EF9400EE94004010007D0B7CBEDCFE3D
:091BE400DDFCEF1F70EA1E80E732
:011BED0022D5
:100026000000000000000000002F00000000070094
:10003600070000147F147F1400242A7F2A1200620E
:1000460064081323003649552250000005030000BA
:1000560000001C224100000041221C000014083E42
:1000660008140008083E0808000000A06000000808
:10007600080808080000606000000020100804025C
:10008600003E5149453E0000427F4000004261511A
:100096004946002141454B31001814127F100027B4
:1000A60045454539003C4A49493000017109050377
:1000B60000364949493600064949291E00003636A8
:1000C600000000005636000000081422410000140B
:1000D60014141414000041221408000201510906E8
:1000E60000324959513E007C1211127C007F494969
:1000F6004936003E41414122007F4141221C007F9A
:1001060049494941007F09090901003E4149497AA7
:10011600007F0808087F0000417F41000020404121
:100126003F01007F08142241007F40404040007F8D
:10013600020C027F007F0408107F003E4141413ED1
:10014600007F09090906003E4151215E007F091919
:1001560029460046494949310001017F0101003F16
:100166004040403F001F2040201F003F4038403F96
:1001760000631408146300070870080700615149FA
:10018600454300007F41410000552A552A5500008D
:1001960041417F000004020102040040404040400B
:1001A600000001020400002054545478007F4844A3
:1001B600443800384444442000384444487F0038DA
:1001C6005454541800087E0901020018A4A4A47C03
:1001D600007F080404780000447D400000408084CD
:1001E6007D00007F102844000000417F4000007C15
:1001F60004180478007C0804047800384444443821
:1002060000FC242424180018242418FC007C08046C
:10021600040800485454542000043F444020003C45
:100226004040207C001C2040201C003C4030403CCC
:10023600004428102844001CA0A0A07C004464545C
:100246004C441414141414140000000000000000A0
:100256000000000000000000000000F800000000A0
:10026600000000333000000000100C06100C0600E1
:10027600000000000000000040C07840C078400048
:10028600043F04043F040400007088FC08300000AA
:10029600001820FF211E0000F008F000E018000002
:1002A60000211C031E211E0000F0088870000000BB
:1002B6001E2123241927211010160E00000000000D
:1002C6000000000000000000000000E0180402002A
:1002D600000000071820400000020418E00000009B
:1002E6000040201807000000404080F08040400099
:1002F6000202010F01020200000000F000000000EF
:100306000101011F010101000000000000000000C2
:1003160080B0700000000000000000000000000037
:1003260000010101010101010000000000000000C0
:10033600003030000000000000000000806018045B
:10034600006018060100000000E010080810E00038
:10035600000F102020100F00001010F80000000001
:100366000020203F20200000007008080888700048
:1003760000302824222130000030088888483000C8
:100386000018202020110E000000C02010F80000E8
:1003960000070424243F240000F808888808080081
:1003A6000019212020110E0000E010888818000096
:1003B600000F112020110E0000380808C838080068
:1003C6000000003F000000000070880808887000E8
:1003D600001C222121221C0000E010080810E00069
:1003E6000000312222110F00000000C0C0000000F2
:1003F6000000003030000000000000800000000017
:10040600000080600000000000008040201008000E
:1004160000010204081020004040404040404000D7
:1004260004040404040404000008102040800000B2
:100436000020100804020100007048080808F000B7
:100446000000003036010000C030C828E810E00087
:100456000718272423140B000000C038E000000012
:10046600203C23020227382008F88888887000007C
:10047600203F202020110E00C03008080808380050
:10048600071820202010080008F808080810E000C7
:10049600203F202020100F0008F88888E808100068
:1004A600203F20202320180008F88888E80810003C
:1004B600203F200003000000C03008080838000074
:1004C60007182020221E020008F808000008F80875
:1004D600203F210101213F20000808F808080000FC
:1004E6000020203F2020000000000808F80808002F
:1004F600C08080807F00000008F888C028180800A7
:10050600203F20012638200008F8080000000000DF
:10051600203F20202020300008F8F800F8F80800D6
:10052600203F003F003F200008F830C00008F808D0
:10053600203F200007183F00E01008080810E000E0
:100546000F10202020100F0008F808080808F000F7
:10055600203F210101010000E01008080810E0001A
:100566000F18242438504F0008F8888888887000AF
:10057600203F2000030C302000708808080838004F
:100586000038202121221C00180808F80808180045
:100596000000203F2000000008F808000008F808C6
:1005A600001F202020201F000878880000C8380877
:1005B600000007380E010000F80800F80008F800EF
:1005C600033C0700073C0300081868808068180889
:1005D60020302C03032C30200838C800C838080007
:1005E6000000203F2000000010080808C838080056
:1005F6002038262120201800000000FE02020200FA
:100606000000007F40404000000C30C000000000A9
:10061600000000010638C00000020202FE000000D1
:10062600004040407F000000000004020202040077
:1006360000000000000000000000000000000000B4
:10064600808080808080808000020204000000009C
:100656000000000000000000000080808080000094
:100666000019242222223F2008F800808000000082
:10067600003F112020110E00000000808080000045
:10068600000E112020201100000000808088F80054
:10069600000E112020103F20000080808080000086
:1006A600001F222222221300008080F088888818EA
:1006B6000020203F202000000000808080808000F5
:1006C600006B94949493600008F80080808000008A
:1006D600203F210000203F20008098980000000065
:1006E6000020203F20200000000000809898000095
:1006F60000C08080807F000008F8000080808000B5
:10070600203F24022D302000000808F800000000D9
:100716000020203F20200000808080808080800094
:10072600203F20003F20003F808000808080000026
:10073600203F210000203F200000808080800000B4
:10074600001F202020201F008080008080000000E5
:1007560080FFA12020110E00000000808080800014
:10076600000E112020A0FF80808080008080800005
:1007760020203F2120000100000080808080800032
:100786000033242424241900008080E080800000A7
:100796000000001F202000008080000000808000F4
:1007A600001F202020103F20808080000080808055
:1007B60000010E30080601008080008000808080E5
:1007C6000F300C030C300F0000808000808080000A
:1007D6000020312E0E312000808080000080808035
:1007E60080818E70180601000080808080808000E5
:1007F6000021302C2221300000000000807C020203
:1008060000000000003F404000000000FF00000024
:1008160000000000FF0000000002027C80000000D3
:100826000040403F000000000006010102020404EF
:1008360000000000000000000000F010101010FF83
:1008460010101010F0000000000000000000000072
:10085600000000000000000000000F04040404FF74
:10086600040404040F000000000000000000000063
:1008760000000000000000004040405F55555575DF
:100886005555555F40404000000000000000000044
:1008960000000000000000000040200F094989798F
:1008A6000909090F204000000000000000000000B8
:1008B600000000000000000000FE02424ACA4A4A48
:1008C600CA4A4A4202FE0000000000000000000082
:1008D600000000000000000000FF40504C43404074
:1008E6004F50505C40FF0000000000000000000078
:1008F60000000000000000000000F888888888FFDB
:1009060088888888F80000000000000000000000C9
:10091600000000000000000000001F080808087F13
:10092600888888889F80F000000000000000000092
:10093600000000000000000080828282828282E243
:10094600A2928A86828080000000000000000000DB
:100956000000000000000000000000000040807F52
:100966000000000000000000000000000000000081
:1009760000000000000000002424A4FEA3220022A0
:10098600CC0000FF00000000000000000000000096
:100996000000000000000000080601FF000104043A
:1009A600040404FF02020200000000000000000030
:1009B6000000000000000000101010FF10900888D2
:1009C6008888FF8888880800000000000000000072
:1009D60000000000000000000444827F0180804087
:1009E600432C102846818000000000000000000013
:0809F6000000000000000000F9
:101BEE00EF4E60157D087C07ED1DAA0470011C4A9E
:091BFE0070F6EF1F70EA1E80E78B
:011C070022BA
:0F1B5E0024B0FFE4FD121B6DE4FF121B6D7F101E
:101B6D00ED6004D2848002C284C285E4FEC281EF9E
:101B7D0030E704D2828002C282D281EF25E0FF0ECF
:071B8D00BE08EAD285D284F4
:011B9400222E
:101B9500AC07ED24B0FFE4FD121B6DEC54F0C4540A
:101BA5000F4410FF121B6DEC540F4401FF021B6D17
:101C4E00E4FD7F8D121B6D7F14121B6D7FAF021B87
:011C5E006D18
:0C1CA400E4FD7F8D121B687FAE021B6DFB
:101C0800E4FCEC121B5EE4FB7D01E4FF121B6D0B90
:071C1800BB80F50CBC08EBDA
:011C1F0022A2
:0617FC00AA07A905AF03D6
:10180200E4FCEF24E0FBEAD3947F4004E4FA090904
:10181200AF02AD01121B95E4FC75F010EBA42CF5A0
:1018220082E435F0F583E582244EF582E5833402C5
:10183200F583E493FF7D01121B6D0CBC08DBAF0244
:10184200E904FD121B95E4FC75F010EBA42CF58263
:10185200E435F0F583E5822456F582E5833402F51A
:0E18620083E493FF7D01121B6D0CBC08DB229A
:041C20008F11A90572
:101C24007F017E00AD0119ED6009AD117C00120D3C
:031C3400DC80F160
:011C3700228A
:081870008F088D098A0A8B0B19
:10187800E4F510F50EE50EC3950C505FC3E50C9525
:101888000E14FD7F0A121C20AC0AAD0BCFCDCFCEB3
:10189800CCCE120DEE7C007D0A120DEE8D0FE510F8
:1018A8007020E50C14FFE50EC39F5016E50F700F6E
:1018B800E50DC313850EF0A42508FF7B2080137562
:1018C8001001E50DC313850EF0A42508FFE50F24CC
:0B18D80030FBAD091217FC050E809AD2
:0118E30022E2
:0A1AE6008F128D138B148A158916D8
:101AF000E4F517AB14AA15A9168517827583001291
:101B00000DAFFB601DAD13AF121217FC7408251248
:101B1000F512D394784007E4F51205130513051761
:021B200080D172
:011B220022A0
:1014AD00D2837F647E00121BEEC2837F647E0012A6
:1014BD001BEED283E4FD7FAE121B637F40121B6DCA
:1014CD007F81121B6D7FCF121B6D7FA1121B6D7F54
:1014DD00C8121B6D7FA6121B6D7FA8121B6D7F3F5F
:1014ED00121B6D7FD3121B6DE4FF121B6D7FD51286
:1014FD001B6D7F80121B6D7FD9121B6D7FF1121B2F
:10150D006D7FDA121B6D7F12121B6D7FDB121B6D4F
:10151D007F40121B6D7F20121B6D7F02121B6D7F92
:10152D008D121B6D7F14121B6D7FA4121B6D7FA678
:10153D00121B6D7FAF121B6D7FAF121B6D121C083E
:06154D00E4FDFF021B9506
:041B2300A907AC055D
:101B2700E9D39C4006890CA904AC0CEBD3950B4078
:101B3700078B0CAB0B850C0BEBD3950B5018EB12EB
:101B47001B5EAA01EAD39C500A7D01E4FF121B6DBC
:061B57000A80F10B80E2A0
:011B5D002265
:101BB500E4F5D8F5E9F5F975D90275EAFF75FAFF87
:0F1BC50075DA4275EBFF75FBFF75DB42D2DE224E
:051CF7008FEA8FFA22C4
:051CFC008FEB8FFB22BD
:031AA0000118002A
:0E1C6F00439850438E11759CFDD2AFD2AC222B
:080003008F993099FDC299228A
:10000E00120D96FF600C120003740129F9E43AFAFE
:03001E0080EE224F
:030023000218E4DC
:1018E400C0E0C0F0C083C082C0D075D000C000C0CA
:1018F40001C002C003C004C005C006C0073098255B
:10190400C29885991CE51CB4FF1BAF43AE42AD41A0
:10191400AC407BCD7ACC79CC783D120A018F438ED2
:10192400428D418C40D007D006D005D004D003D0DE
:1019340002D001D000D0D0D082D083D0F0D0E03219
:0C1CB0004F4B004D414E004155544F0079
:101944001216F7121BB5121CA41214AD121C0812A5
:101954001C4E121C6F121CEC121CBC121CC6121C56
:10196400D0121CE3121C7D121C8A121C977F017E6C
:1019740000121BD47BFF7A1C79B012000EE523B44D
:1019840038087BFF7A1C79B3800BE523B4370D7BD1
:0F199400FF7A1C79B77D06E4FF121AE6021C5F8A
:1016F70075439A754299754139754040E4F53FF550
:101707003EF53DF53CF53BF53A753940753841F501
:1017170027F526F525F524F558F557F556F555F52A
:1017270048F547F546F545F537F536F535F534F51A
:1017370033F532F531F530F554F553F552F551FFE0
:10174700FE7DA07C40AB50AA4FA94EA84D120A05BA
:101757008F2F8E2E8D2D8C2CE4FFFE7DA07C40AB31
:1017670050AA4FA94EA84D120A058F2B8E2A8D29F4
:031777008C282299
:101C5F00758901758CDCE4F58AD2AFD2A9D28C22BA
:101C38004C65667420200052696768742000495218
:061C4800004D4F544F0057
:1011B3007BFF7A1C7938E4FDFF121AE67BFF7A1C69
:1011C300793F7D02E4FF121AE6AF2FAE2EAD2DACB0
:1011D3002C120D15EFFB7A00750C03750D10E4FD51
:1011E3007F32121870AF2BAE2AAD29AC28120D1521
:1011F300EFFB7A00750C03750D107D027F32121818
:1012030070E5A0C4540F7A005401FB750C01750DF1
:10121300107D067F32121870E5A0131313541F7A42
:10122300005401FB750C01750D107D067F3C1218EF
:1012330070E5A01313543F7A005401FB750C01753C
:101243000D107D067F46121870E5A0C3137A005473
:1012530001FB750C01750D107D067F50121870E5AA
:10126300A07A005401FB750C01750D107D067F5AA1
:101273001218707BFF7A1C79467D067F6E121AE680
:10128300E590C4131354037A005401FB750C0175E4
:101293000D107D04E4FF121870E590C41354077A0F
:1012A300005401FB750C01750D107D047F0A1218A3
:1012B300707B2D7D047F141217FCE590C4540F7AC4
:1012C300005401FB750C01750D107D047F1E12186F
:1012D30070E590131313541F7A005401FB750C012E
:1012E300750D107D047F281218707B2D7D047F32CD
:1012F3001217FCE590C3137A005401FB750C0175BA
:101303000D107D047F3C121870E5907A005401FBA8
:10131300750C01750D107D047F461218707BFF7AE2
:101323001C79497D047F5A121AE6E521FB7A007580
:101333000C01750D10E4FD7F5A121870E522FB7A3B
:0E13430000750C03750D107D027F5A021870A4
:1009FE00020D81E86480F8E933E83360110460F099
:100A0E00ED33EC337009E8FCE9FDEAFEEBFF22045E
:100A1E0060DED3EB9FEA9EE99DE8C2E78CF0C2F759
:100A2E0095F0400CE8CCF8E9CDF9EACEFAEBCFFB25
:100A3E00120D4C85D0F05804700320D5B3E8047025
:100A4E00075002B2D5020D8B92D5EC0460F7E4CCC0
:100A5E00C0E0C398F8603B94186008400DD0E0FBEE
:100A6E00020D63E4FBFAC9FC8028E830E406E4C911
:100A7E00FBE4CAFCE830E305E4C9CACBFCE8540742
:100A8E006010F8C3E913F9EA13FAEB13FBEC13FC4D
:100A9E00D8F130F52FC3E49CFCEF9BFFEE9AFEEDF0
:100AAE0099FDD0E0FBEF4E4D4C701222DB03020D90
:100ABE0088EC2CFCEF33FFEE33FEED33FDED30E72B
:100ACE00EB020D63EF2BFFEE3AFEED39FDD0E0FBAE
:100ADE0050130BBB0003020D8BED13FDEE13FEEF57
:080AEE0013FFEC13FC020D6381
:100AF600EC4D6011E8497017ED33EC3304600DE4FA
:100B0600FCFFFEFD22E933E8330470F8020D811282
:100B16000D4C58046009E4CC248150062850090283
:100B26000D8B284003020D88C0E0EB4A7044B98063
:100B360006D0E0FB020D77EF4E701CBD8008EBFF80
:100B4600EAFEE9FD80EBE98DF0A4FEE5F0020BDF9D
:100B5600E9CDF9EAFEEBFFEF89F0A4FCE5F0CE89DA
:100B6600F0A42EFFE435F0CD89F0A42DFEE435F097
:100B76008067EF4E7005BD80D780C3EF8BF0A4ACC5
:100B8600F0EE8BF0A42CFCE435F0F8EF8AF0A42C00
:100B9600E5F038FCE433CB8DF0A42CFCE5F03BF813
:100BA600EE8AF0A42CFCE5F038F8E433CF89F0A403
:100BB6002CFCE5F038CF3400CE89F0A42FFFE5F009
:100BC6003EFEE433C98DF0A42EFEE5F039CD8AF061
:100BD600A42FFFE5F03EFEE43DFD33D0E0FB5007D9
:100BE6000BBB000F020D8BEC2CFCEF33FFEE33FE3C
:060BF600ED33FD020D636A
:100BFC00020D8BEC5D046005E859047003020D8155
:100C0C00120D4C580460F6EC4860F2EC7004FDFEDA
:100C1C00FF22C860DB2481C85009C39860025006CB
:100C2C00020D889850CAF582E9294B4A7005AB82AF
:100C3C00020D7775F0007C1A7880C3EF9BEE9AED6D
:100C4C0099400DC3EF9BFFEE9AFEED99FDE842F043
:100C5C00DC23ACF0D0E0FFD0E0FED0E0FDAB822096
:100C6C00E7101BEB60BAEC2CFCEF33FFEE33FEED20
:100C7C0033FD020D63E803F830E705C0F075F000B2
:100C8C00EF2FFFEE33FEED33FD40B830E7C280AA04
:100C9C0074F8CC6480CCC86480C8F58204604FC3FF
:100CAC00EB9FF5F0EA9E42F0E99D42F0E89C45F09E
:100CBC00603C501DE5825FFFE582D313CB5BCBF428
:100CCC002B5582FB50280ABA002409B90020088051
:100CDC001DE5825BFBE582D313CF5FCFF4C3132FEB
:100CEC005582FF50090EBE00050DBD00010CC3EB73
:100CFC009FF5F0EA9E42F0E99D42F0E89C45F060D9
:090D0C0007CC4820E701B3EC22FA
:100D1500EDD2E7CD33EC3392D524814006E4FFFED6
:100D2500FDFC22FCE4CFCECDCC24E0501174FF8035
:100D3500EDC3CC13CCCD13CDCE13CECF13CF0470D2
:070D4500F030D5DE020E4381
:100D4C00E9D2E7C933E833F892D5EDD2E7CD33ECED
:070D5C0033FC5002B2D52266
:100D6300EC30E7100FBF000C0EBE00080DBD0004F1
:100D73000BEB6014A2D5EB13FCED92E7FD2274FF9D
:100D8300FCFDFEFF22E480F8A2D574FF13FC7D80F6
:030D9300E480EF0A
:030000000215E600
:0C15E600787FE4F6D8FD75815802162DC0
:100D9600BB010689828A83E0225002E722BBFE025B
:090DA600E32289828A83E493228E
:100DAF00BB010CE58229F582E5833AF583E02250F9
:100DBF0006E92582F8E622BBFE06E92582F8E22243
:0D0DCF00E58229F582E5833AF583E493225D
:100DDC00EF8DF0A4A8F0CF8CF0A428CE8DF0A42E2B
:020DEC00FE22E5
:100DEE00BC000BBE0029EF8DF084FFADF022E4CCE9
:100DFE00F875F008EF2FFFEE33FEEC33FCEE9DECB2
:100E0E00984005FCEE9DFE0FD5F0E9E4CEFD22EDF7
:100E1E00F8F5F0EE8420D21CFEADF075F008EF2F41
:100E2E00FFED33FD4007985006D5F0F222C398FD32
:050E3E000FD5F0EA22CF
:0E0E4300C3E49FFFE49EFEE49DFDE49CFC22C0
:100E5100D083D082F8E4937012740193700DA3A330
:100E610093F8740193F5828883E473740293686044
:060E7100EFA3A3A380DF44
:1015F200021CF2E493A3F8E493A34003F68001F201
:1016020008DFF48029E493A3F85407240CC8C333F9
:10161200C4540F4420C8834004F456800146F6DFC8
:10162200E4800B0102040810204080901A52E47EEC
:10163200019360BCA3FF543F30E509541FFEE493BD
:10164200A360010ECF54C025E060A840B8E493A384
:10165200FAE493A3F8E493A3C8C582C8CAC583CAAF
:10166200F0A3C8C582C8CAC583CADFE9DEE780BE67
:011AA3000042
:00000001FF
